{
  "contractName": "MyContract",
  "abi": [
    {
      "constant": false,
      "inputs": [
        {
          "internalType": "uint256",
          "name": "_number",
          "type": "uint256"
        }
      ],
      "name": "setNumber",
      "outputs": [],
      "payable": false,
      "stateMutability": "nonpayable",
      "type": "function"
    },
    {
      "constant": true,
      "inputs": [],
      "name": "getNumber",
      "outputs": [
        {
          "internalType": "uint256",
          "name": "",
          "type": "uint256"
        }
      ],
      "payable": false,
      "stateMutability": "view",
      "type": "function"
    }
  ],
  "bytecode": "0x608060405234801561001057600080fd5b5060d38061001f6000396000f3fe6080604052348015600f57600080fd5b506004361060325760003560e01c80633fb5c1cb146037578063f2c9ecd8146062575b600080fd5b606060048036036020811015604b57600080fd5b8101908080359060200190929190505050607e565b005b60686095565b6040518082815260200191505060405180910390f35b6000811015608b57600080fd5b8060008190555050565b6000805490509056fea265627a7a72315820455cd80fdf5cd3f33ca790d8b29e9d07cc3807f735d55b1e69486c0f42d2619a64736f6c63430005100032",
  "source": "// SPDX-License-Identifier: MIT\npragma solidity >=0.4.22 <8.10.0;\n\ncontract MyContract {\n  uint number;\n  \n  function setNumber(uint _number) public {\n    require(_number >= 0);\n    number = _number;\n  }\n\n  function getNumber() public view returns (uint) {\n    return number;\n  }\n}\n",
  "sourcePath": "/media/rouftom/Developpement/Workspace/Blockchain/Ethereum/truffle-react-material-lib/truffle-react-material/contracts/MyContract.sol",
  "compiler": {
    "name": "solc",
    "version": "0.5.16+commit.9c3226ce.Emscripten.clang"
  },
  "schemaVersion": "3.4.0",
  "updatedAt": "2022-05-20T01:58:49.715Z",
  "networkType": "ethereum",
  "devdoc": {
    "methods": {}
  },
  "userdoc": {
    "methods": {}
  }
}